:020000020000FC
:10000000EBC018951895189518951895189518958A
:100010001895189518951895189518951895189578
:100020001895C498B299FECF0895C49AB299FECF9C
:10003000089531504040B29B089500000000C9F778
:100040000895C49A38EA41E6F4DFC49838EA41E6F4
:10005000F0DFB29B0895F5CF0895C49A34EC49E0DF
:10006000E8DFC49834EC49E0E4DFB29B0895F5CFB3
:100070000895C49A3AEF40E0DCDFC4983AEF40E0DC
:10008000D8DFB29B0895F5CF0895C49A39E140E0D6
:10009000D0DFC49839E140E0CCDFB29B0895F5CFC2
:1000A0000895C49A35E040E0C4DFC49835E040E0EC
:1000B000C0DFB29B0895F5CF0895C49A31E040E0C7
:1000C000B8DFC49831E040E0B4DFB29B0895F5CFCB
:1000D0000895C49AB29B0895C498FBCF089500E098
:1000E0001FEF20E00117B1F12117A1F12395B29B79
:1000F0000395000000000000000000000000000068
:1001000000000000000000000000000000000000EF
:1001100000000000000000000000000000000000DF
:1001200000000000000000000000000000000000CF
:1001300000000000000000000000000000000000BF
:1001400000000000000000000000000000000000AF
:100150000000C8CF089500E01FEF20E00117B1F1C3
:100160002117A1F12395B29903950000000000002A
:10017000000000000000000000000000000000007F
:10018000000000000000000000000000000000006F
:10019000000000000000000000000000000000005F
:1001A000000000000000000000000000000000004F
:1001B000000000000000000000000000000000003F
:1001C00000000000000000000000C8CF089587DF95
:1001D000B29BFECFC0DF089500E107BB04E008BB7F
:1001E00020DFF5DF22DFF3DF2CDFF1DF36DFEFDFAB
:1001F00040DFEDDF4ADFEBDF54DFE9DF5EDFE7DF23
:0602000068DFE5DFEDCF31
:00000001FF
