:020000020000FC
:1000000095C01895189518951895189518951895E0
:100010001895189518951895189518951895189578
:100020001895C498B299FECF0895C49AB299FECF9C
:10003000089531504040B29B089500000000C9F778
:100040000895C49A38EA41E6F4DFC49838EA41E6F4
:10005000F0DFB29B0895F5CF0895C49A34EC49E0DF
:10006000E8DFC49834EC49E0E4DFB29B0895F5CFB3
:100070000895C49A3AEF40E0DCDFC4983AEF40E0DC
:10008000D8DFB29B0895F5CF0895C49A39E140E0D6
:10009000D0DFC49839E140E0CCDFB29B0895F5CFC2
:1000A0000895C49A35E040E0C4DFC49835E040E0EC
:1000B000C0DFB29B0895F5CF0895C49A31E040E0C7
:1000C000B8DFC49831E040E0B4DFB29B0895F5CFCB
:1000D0000895C49AB29B0895C498FBCF089500E098
:1000E0001FEF20E0011759F0211749F02395B29B2B
:1000F000039534E640E031504040E9F7F3CF0895EE
:1001000000E01FEF20E0011759F0211749F0239577
:10011000B299039534E640E031504040E9F7F3CF1F
:100120000895DDDFB29BFECFEBDF089500E107BB52
:1001300004E008BB76DFF5DF78DFF3DF82DFF1DF95
:100140008CDFEFDF96DFEDDFA0DFEBDFAADFE9DF9B
:0A015000B4DFE7DFBEDFE5DFEDCF2F
:00000001FF
